:060000000A128A110C280F
:10000800FE00030EF0000A08F1000A128A15282FD4
:100018000A128A110F280A128A11FE270A128A1157
:10002800BF000A128A11FD270A128A11FB00B601C5
:10003800B701B801B901BA01BB01BC01BD01BE01DC
:10004800F901FA0183010A128A11F62A83120313AD
:10005800AE002A0A031D312832283728FF30AE00A7
:10006800B601B701B8015130F6008030F7000A1226
:100078008A1549260A128A11AB30F600C030F700FB
:100088000A128A1549260A128A111230F600D0304F
:10009800F7000A128A1549260A128A11C8308312F3
:1000A8000313A80020300A128A11E4240A128A11C4
:1000B800C93083120313A80020300A128A11E424DD
:1000C8000A128A11CA3083120313A80020300A12B8
:1000D8008A11E4240A128A11323083120313AD0004
:1000E8000130AD022D0A031D7A287B287428C830F8
:1000F800A8006430F2000030F3003708F500360835
:10010800F4000A128A1565270A128A117208303E0D
:100118000A128A11E4240A128A11C93083120313BD
:10012800A8000A30A0000030A1000A30F200003018
:10013800F3003708F5003608F4000A128A15652717
:100148000A128A11730883120313A3007208A2000B
:100158000A128A15EE260A128A118312031320083E
:10016800303E0A128A11E4240A128A11CA30831214
:100178000313A8000A30A0000030A1003708A3002C
:100188003608A2000A128A15EE260A128A1183126C
:1001980003132008303E0A128A11E4240A128A1135
:1001A8002A30831203132E060319DB28DC280729BB
:1001B80023302E060319E128E22807292E0A0319FD
:1001C800E628E7280729033038020318EC28ED2829
:1001D800BD293708F3003608F2000A30F400003071
:1001E800F5000A128A1593260A128A11831203133C
:1001F8002E087207B6000030031801307307B700E5
:100208000130B807BD292A302E06031D0C290D29F7
:100218001129B601B701B801BD2923302E06031DE7
:1002280016291729BD2900303702B53003193602BF
:10023800031C1F2920292429B430B6000030B70038
:100248000A128A15EE250A128A117830F6008230D1
:10025800F7000A128A1549260A128A119A30F600FE
:100268009030F7000A128A1549260A128A11E130DD
:10027800F6009D30F7000A128A1549260A128A11DB
:100288003C3083120313BB001215AC299A30A80026
:100298006430F2000030F3003B08AB00AC012B08DF
:1002A800F4002C08F5000A128A117A270A128A111A
:1002B8007208303E0A128A11E4240A128A119B300D
:1002C80083120313A8000A30A4000030A5000A30E6
:1002D800F2000030F3003B08AB00AC012B08F4003F
:1002E8002C08F5000A128A117A270A128A11730853
:1002F80083120313A7007208A6000A128A15A727FB
:100308000A128A11831203132408303E0A128A1132
:10031800E4240A128A119C3083120313A8000A30BD
:10032800A4000030A5003B08AB00AC012B08A600D8
:100338002C08A7000A128A15A7270A128A11831205
:1003480003132408303E0A128A11E4240A128A117F
:10035800831203133B08031DB229B3294A2912113A
:100368000A128A15EE250A128A1111308312031314
:10037800BF00080083120313AE002A0A031DC52913
:10038800C629CC29BA01B901FF30AE00BD01BE01B2
:100398000130F6008030F7000A128A1549260A1241
:1003A8008A11A330F600C030F7000A128A154926D0
:1003B8000A128A111230F600D030F7000A128A1594
:1003C80049260A128A112A30831203132E060319AA
:1003D800EE29EF29252A23302E060319F429F529B9
:1003E800252A2E0A0319F929FA29252A0130B907DD
:1003F800033039020318012A022A102A0A30F200AF
:100408003E080A128A15FF250A128A11831203135D
:100418002E07BE00BA01462A053039020318152AEC
:10042800162A462A0A30F2003D080A128A15FF25C4
:100438000A128A11831203132E07BD000130BA0075
:10044800462A2A302E06031D2A2A2B2A372A3A083A
:1004580003192F2A302A342ABD010230B900462A4E
:10046800BE01B901462A23302E06031D3C2A3D2A27
:10047800462A07151215DD30BF000A128A15EE2527
:100488000A128A11831203133A08031D4C2A4D2AB3
:10049800602AC930A80020300A128A11E4240A12FE
:1004A8008A11CA3083120313A80020300A128A1155
:1004B800E4240A128A11722AC630A80020300A12CF
:1004C8008A11E4240A128A11C73083120313A80080
:1004D80020300A128A11E4240A128A113230831257
:1004E8000313AD000130AD022D0A031D7C2A7D2ABD
:1004F800762AC930A8000A30F2000030F3003E081E
:10050800AB00AC012B08F4002C08F5000A128A1184
:100518007A270A128A117208303E0A128A11E424D4
:100528000A128A11CA3083120313A8000A30A400E1
:100538000030A5003E08AB00AC012B08A6002C0833
:10054800A7000A128A15A7270A128A118312031311
:100558002408303E0A128A11E4240A128A11C8308B
:1005680083120313A8003A300A128A11E4240A12EB
:100578008A11C63083120313A8000A30F200003033
:10058800F3003D08AB00AC012B08F4002C08F50083
:100598000A128A117A270A128A117208303E0A1240
:1005A8008A11E4240A128A11C73083120313A8009F
:1005B8000A30A4000030A5003D08AB00AC012B08B0
:1005C800A6002C08A7000A128A15A7270A128A1162
:1005D800831203132408303E0A128A11E4240A12F3
:1005E8008A11080083120313B4010A128A11DF2743
:1005F8000A128A1101300A128A1526260A128A114D
:1006080083120313B50002303F06031D0C2B0D2B7C
:10061800712B3503031D112B122B3D2B0A128A1542
:10062800EE250A128A11113083120313BF00B40198
:100638008F30F600C030F7000A128A1549260A12D0
:100648008A11333083120313B300BB30B200DF309A
:10065800B100B10B2D2BB20B2D2BB30B2D2B0A1286
:100668008A15EE250A128A11FF3083120313BC0083
:10067800712B02303506031D422B432B4E2B0A12D9
:100688008A15EE250A128A1183120313B401123057
:10069800BF00382B03303506031D532B542B5F2B1B
:1006A8000A128A15EE250A128A1183120313B4015D
:1006B8001330BF00382B04303506031D642B652B1F
:1006C800712B0A128A15EE250A128A111430831228
:1006D8000313BF000130B400382BDD303F06031D83
:1006E800762B772BA32B04303506031D7C2B7D2B13
:1006F800912B34080319812B822B002C3E081E3EB7
:10070800BE003C303E02031C8A2B8B2BB42B0130DD
:10071800BD073E08C43EBE00002C05303506031D4B
:10072800962B972B9A2BCC30BF00002C0630350621
:10073800031D9F2BA02BB42BBB30BF00002CCC304B
:100748003F06031DA82BA92B002C04303506031DDA
:10075800AE2BAF2BB42B07151215DD30BF00002CC4
:10076800002C0A128A1187240A128A110230831275
:100778000313BF000A128A15EE250A128A111D2CCE
:100788000A128A156E260A128A111D2C3C08AA0024
:1007980035080A128A11BE210A128A111D2C0A1262
:1007A8008A11EA250A128A111D2C071112111D2C13
:1007B800071112110A128A15EE250A128A1102303F
:1007C80083120313BF001D2C3C08AA0035080A1227
:1007D8008A11BE210A128A111D2C3C08AA0035086C
:1007E8000A128A112A200A128A111D2C0A128A1545
:1007F800C7250A128A111D2C3F08013A0319B52B87
:10080800033A0319C42B133A0319CA2B033A0319E1
:10081800E82B013A0319F12B073A0319FA2BAF3ADF
:100828000319DC2B773A0319D92B113A0319D32B67
:100838001D2C83120313BC01FE2A0A128A110C28EC
:10084800C330F700CD30F600F60B282CF70B282C18
:10085800F20133300A128A15B8260A128A111B309F
:10086800F7009E30F600F60B372CF70B372C0000FC
:10087800F20133300A128A15B8260A128A11A630F4
:10088800F600F60B452C0000F20133300A128A15E7
:10089800B8260A128A11502C512C0000F20102309D
:1008A8000A128A15B8260A128A11A630F600F60B23
:1008B8005B2C0000F20128300A128A15B8260A12A9
:1008C8008A11A630F600F60B672C0000F201013001
:1008D8000A128A15B8260A128A110430F7003D3028
:1008E800F600F60B752CF70B752C7A2CF2010C30F0
:1008F8000A128A15B8260A128A11A630F600F60BD3
:10090800832C0000080083120313AD01AE012D08EB
:10091800803EA800FF300A128A11E4240A128A11C4
:10092800013083120313AD070318AE0A0030AE0777
:1009380000302E02103003192D02031CA42CA52C04
:100948008B2C6C30F600C230F7000A128A15492643
:100958000A128A114230F6009130F7000A128A15FD
:1009680049260A128A1183120313AF01B0012F0816
:10097800D03EA800FF300A128A11E4240A128A1114
:10098800013083120313AF070318B00A0030B00711
:1009980000303002103003192F02031CD42CD52C40
:1009A800BB2C7F3083120313AC00D430AB00313042
:1009B800AA00AA0BDD2CAB0BDD2CAC0BDD2C080040
:1009C80083120313A900F20128080A128A15B8260F
:1009D8000A128A11F201F20A8312031329080A1271
:0A09E8008A15B8260A128A110800C9
:100A000005308A000408840A8207003453344534D0
:100A100054342034543449344D344534203428344B
:100A20004D344D343A3453345334293400342A3459
:100A30003A3443344C344534413452342034203435
:100A400023343A3445344E3454344534523400342B
:100A500045346E346A346F347934203479346F34E9
:100A60007534723420346D34653461346C34003440
:100A700034342E34533454344134523454342F34B7
:100A800052344534533455344D34453400344D34A8
:100A90006934633472346F34773461347634653456
:100AA00020344F34763465346E3400345334453456
:100AB00054342034543445344D34503420343C3490
:100AC0002A3443343E34003433342E3443346F34C8
:100AD0006E34763465346E34743469346F346E3405
:100AE000003450346F3477346534723469346E3482
:100AF000673420344F344E3400345034723465340B
:100B00002D34483465346134743469346E34673458
:100B10000034543449344D34453420345534503441
:100B2000213421342134003450346F347734653427
:100B300072343D3439343034303457340034543422
:100B400069346D3465342034523465346D34003486
:100B50002034543449344D34453420342D34003459
:100B60002034543445344D34503420342D34003442
:100B700035342E34503441345534533445340034F4
:100B800032342E344734723469346C346C3400346B
:100B900031342E344D346934633472346F3400345C
:100BA00034342E3453347434613472347434003435
:100BB000543449344D34453420343D3400343634D3
:100BC0002E34533454344F34503400347334653439
:100BD00063340034D330F6008130F7000A128A15EE
:100BE00049260A128A118C3083120313A8000A3096
:100BF000F2000030F3003E08AA00AB012A08F4001E
:100C00002B08F5000A128A117A270A128A11720833
:100C1000303E0A128A11E4240A128A118D3083129E
:100C20000313A8000A30A4000030A5003E08AA0063
:100C3000AB012A08A6002B08A7000A128A15A727CD
:100C40000A128A11831203132408303E0A128A11F1
:100C5000E4240A128A118B3083120313A8003A305D
:100C60000A128A11E4240A128A11893083120313AA
:100C7000A8000A30F2000030F3003D08AA00AB01E2
:100C80002A08F4002B08F5000A128A117A270A12A2
:100C90008A117208303E0A128A11E4240A128A115B
:100CA0008A3083120313A8000A30A4000030A50084
:100CB0003D08AA00AB012A08A6002B08A7000A12CB
:100CC0008A15A7270A128A11831203132408303EBB
:100CD0000A128A11E4240A128A113330F600C13054
:100CE000F7000A128A1549260A128A11B330F60053
:100CF0009130F7000A128A1549260A128A11DA3051
:100D0000F600D130F7000A128A1549260A128A1114
:100D1000831203133D08031D8E2E8F2ECD2E3E0809
:100D2000031D932E942ECD2E0A128A15EE250A123B
:100D30008A1183120313121107118430F600C43094
:100D4000F7000A128A1549260A128A112330F60082
:100D50009030F7000A128A1549260A128A11831266
:100D6000031387141A3083120313AC005E30AB00F8
:100D70006D30AA00AA0BBA2EAB0BBA2EAC0BBA2E52
:100D8000C12E8312031387100A128A15EE250A1248
:100D90008A11023083120313BF0008008312031369
:100DA00088110815881408146430F2000030F3002C
:100DB000FF30F2070318F30AFF30F307720A031D2E
:100DC000E52E730A031DE52EE62ED82E831203139B
:100DD0000618EB2EEC2EEE2E0130792F8618F12E10
:100DE000F22EF42E0230792F0619F72EF82EFA2E55
:100DF0000330792F88150811881408146430F20024
:100E00000030F300FF30F2070318F30AFF30F30756
:100E1000720A031D0F2F730A031D0F2F102F022FAD
:100E2000831203130618152F162F182F0430792F4D
:100E300086181B2F1C2F1E2F0530792F0619212FE6
:100E4000222F242F0630792F8815081588100814B2
:100E50006430F2000030F300FF30F2070318F30AA9
:100E6000FF30F307720A031D392F730A031D392F50
:100E70003A2F2C2F8312031306183F2F402F422F97
:100E80000730792F8618452F462F482F0830792FA5
:100E900006194B2F4C2F4E2F0930792F8815081526
:100EA000881408106430F2000030F300FF30F207BD
:100EB0000318F30AFF30F307720A031D632F730A46
:100EC000031D632F642F562F831203130618692FF7
:100ED0006A2F6C2F2A30792F86186F2F702F722F60
:100EE0000030792F0619752F762F782F2330792F20
:100EF000FF30080083120313A101F31F802F812FFD
:100F0000882FF209F309F20A0319F30A0130A1004C
:100F1000F51F8B2F8C2F932FF409F509F40A031971
:100F2000F50A0130A106A201A30172087304031996
:100F30009A2F9B2FD02F0130A000A72F0130031034
:100F4000F20DF30DFF3E031D9F2F0130A007F31F8D
:100F5000AA2FAB2F9E2F01300310A20DA30DFF3E31
:100F6000031DAC2F73087502031DB82F720874029D
:100F7000031CBB2FBC2FC32F7208F4027308031C81
:100F8000F503F502221401300310F30CF20CFF3EBE
:100F9000031DC42F0130A002031DCF2FD02FAB2F74
:100FA00021080319D42FD52FDA2FA209A309A20AE9
:100FB0000319A30A2308F3002208F20008000A120A
:100FC0008A15D1250A128A110A128A15DE250A12FB
:100FD0008A11831603130711831203130711831653
:100FE000031387108312031387100A128A1512261F
:0E0FF0000A128A110B178B1708000134013406
:101B8E001E3083120313BE00BD0107151215DD3082
:101B9E00BF0008008316031308080F3988000911C7
:101BAE0089100A128A1124240A128A150800831633
:101BBE0003130608073886000808F03988008113D9
:101BCE008312031388150815881408140800F201EF
:101BDE0001300A128A15B8260A128A150430F70047
:101BEE003D30F600F60BF92DF70BF92DFE2D080002
:101BFE00F400F301741C042E052E072E7208F30751
:101C0E000310F20D0310F40C7408031D0F2E102E8A
:101C1E00012E73080800831203131213921212126C
:101C2E009211121192101210831603138C14831238
:101C3E0003138C10FA308316031392000800F4007D
:101C4E000A128A11CE260A128A15F5007408031D8F
:101C5E00312E322E342E7508482E750A0319382E61
:101C6E00392E402E7B0803193D2E3E2E402EFB01B1
:101C7E00322E750A031D442E452E472E0130FB00D1
:101C8E00FF300800F20177080A128A15B8260A12E8
:101C9E008A15612EF201F20A760884000A128A1160
:101CAE0000250A128A150A128A15B8260A128A15F2
:101CBE000130F607760884000A128A1100250A12EE
:101CCE008A15003A031D6C2E6D2E512E0800C3305E
:101CDE00F6008030F7000A128A1549260A128A1574
:101CEE00BB30F600C030F7000A128A1549260A12D8
:101CFE008A155F30F6009030F7000A128A154926D1
:101D0E000A128A15CB30F600D030F7000A128A1567
:101D1E0049260A128A150800F601F701721C982E40
:101D2E00992E9F2E7408F6070318F70A7508F70701
:101D3E0001300310F40DF50DFF3E031DA02E0130F2
:101D4E000310F30CF20CFF3E031DA72E7208730452
:101D5E00031DB22EB32E952E7708F3007608F200EF
:101D6E000800F5007218BC2EC02E8312031309153D
:101D7E00C32E8312031309117508F03988008914D4
:101D8E00A630F300F30BC92E000083120313891043
:101D9E0075080F39F30003300310F30DFF3E031DDA
:101DAE00D32E0310730D88008914A630F300F30BA5
:101DBE00DE2E00008312031389101B30F4009E30B8
:101DCE00F300F30BE82EF40BE82E0000080083124C
:101DDE000313200821040319F52EF62E232F0130AC
:101DEE00A400022F01300310A00DA10DFF3E031D14
:101DFE00FA2E0130A407A11F052F062FF92E210858
:101E0E002302031D0C2F20082202031C0F2F102F5C
:101E1E00162F2008A2022108031CA303A3020130DF
:101E2E000310A10CA00CFF3E031D172F0130A402BE
:101E3E00031D222F232F062F2308A1002208A00006
:101E4E000800831203138C1C2D2F2E2F5E2F0130B2
:101E5E00F9070318FA0A0030FA07203079064E30D7
:101E6E0003197A06031D3C2F3D2F5D2FF901FA0150
:101E7E003E080319432F442F472F0130BE025D2F1A
:101E8E003E08031D4B2F4C2F552F3D080319502F85
:101E9E00512F552FBD013C30BE005D2F3B0803195D
:101EAE00592F5A2F5D2F0130BB025D2F8C107108F8
:101EBE008A00700E8300FE0E7E0E0900F601F701F9
:101ECE007208730403196C2F6D2FA22F0130F800C6
:101EDE00792F01300310F20DF30DFF3E031D712F0C
:101EEE000130F807F31F7C2F7D2F702F0130031068
:101EFE00F60DF70DFF3E031D7E2F73087502031DB1
:101F0E008A2F72087402031C8D2F8E2F952F720844
:101F1E00F4027308031CF503F50276140130031066
:101F2E00F30CF20CFF3E031D962F0130F802031D39
:101F3E00A12FA22F7D2F7708F3007608F20008005C
:101F4E00F70183120313A71FAD2FAE2FB52FA609CE
:101F5E00A709A60A0319A70A0130F700A51FB82F73
:101F6E00B92FBE2FA409A509A40A0319A50A24088E
:101F7E0025040319C32FC42FF12F0130F600D02FE3
:101F8E0001300310A40DA50DFF3E031DC82F013017
:101F9E00F607A51FD32FD42FC72F25082702031D01
:101FAE00DA2F24082602031CDD2FDE2FE42F24084F
:101FBE00A6022508031CA703A70201300310A50CD7
:101FCE00A40CFF3E031DE52F0130F602031DF02F7A
:101FDE00F12FD42F77080319F52FF62FFB2FA60913
:101FEE00A709A60A0319A70A2708A5002608A40010
:021FFE000800D9
:02400E00FB3F76
:00000001FF
